:020000040800F2
:1000000010050020E1000008591300085B0D0008EE
:1000100000000000000000000000000000000000E0
:100020000000000000000000000000001F15000894
:1000300000000000000000005B130008211500080C
:10004000F3000008F3000008F3000008F3000008C4
:10005000F3000008F3000008F3000008F3000008B4
:1000600000000000F3000008F3000008F30000089F
:10007000F3000008F3000008F3000008000000008F
:10008000D1150008F300000800000000F30000088C
:10009000F3000008F3000008F3000008F300000874
:1000A000F3000008F3000008F300000885160008BC
:1000B000F300000800000000000000000000000045
:1000C000F300000800000000F30000080348854624
:1000D00000F086FB00480047692600081005002054
:1000E0000448804704480047FEE7FEE7FEE7FEE7D6
:1000F000FEE7FEE725150008CD000008024670B5B2
:100100004A40D30FDB0740002DD04A002AD0010E11
:10011000140E000212020919400A520A8418E5015D
:1001200004465443000A120A2E045043A4194219EB
:10013000200CC543AA18120C0125AD03521C5219FC
:1001400012047F39240400D0521C104301D4400013
:10015000491EC2B20C06C0092018401C4008802A63
:1001600002D003E0002070BD40084000002900DA02
:100170000020184370BD70B502464A40D50F4000BC
:100180004A00ED0740085208002814D0002A12D077
:10019000C40DD30D41020120C0055202490A520A82
:1001A000E41A091812187D34914201D3641C00E04E
:1001B0004900002C01DA002070BD0023914201D3D8
:1001C000891A0343400849000028F7D100290AD0C2
:1001D000914202D10121C90705E0914201D20121DA
:1001E00001E00121C943E005C018401900F0FAF808
:1001F00070BD0000F0B51FB488B00B9909980024B9
:1002000048400999C00F490049080991C0070B9956
:100210000090490049080B9109990898A64608439F
:100220001CD00B990A98084318D009980124400063
:10023000420D4800410D099824050003000B20439E
:1002400009900B980003000B20430B9050181C4999
:100250004018002201901446104605E00020014697
:100260000DB0F0BD032801DA034600E003239C46ED
:10027000C11A0AAE0AE05F0008ADED5B4F00F75B04
:100280007D430027AA187C41491C5B1E6145F2DDB5
:10029000410004AB5A522104120C0A43240C401CA6
:1002A0000828DFDB019802900099704601910090C8
:1002B000059B049A0799069800F0E2F8D0E7000041
:1002C0000DFCFFFF10B500229623114600F092F8B6
:1002D00010BD00000EB5C217C10F5040CA0740182C
:1002E0000021054B0293019200910A460B4600F053
:1002F000C7F803B000BD0000330400004100400215
:100300000122400AD205090E80187F2901DA002057
:100310007047962903DC9622511AC84070479639D7
:1003200088407047C20FD207400040080BD0C10D73
:100330000723DB01C91840020905400A1143C2081E
:10034000400711437047002001467047CB0FDB0781
:10035000490010B5490802460A4307D00A0D072490
:100360000903E401090B121B002A01DC002010BD67
:10037000C900440F0C43C100E018D205801800F0FA
:1003800031F810BDF0B51FB40646002082B0054616
:100390004024019100901BE0019922460F4630460F
:1003A00000F065FA049A059B801A994110D3104613
:1003B0001946224600F04BFA361A8F410197224621
:1003C00001200021009F00F042FA38184D410090B2
:1003D0002046641E0028DFDC019B00982946324637
:1003E00007B0F0BD002904DA401C490001D14008E3
:1003F0004000704770B40024050C05D1102400049F
:1004000002D1002921D01124050E01D100020834A7
:10041000050F01D10001241D850F01D18000A41C0E
:10042000002801DB4000641C002908D020252E1B79
:100430000D46F540A14000D00121294308430106A3
:100440001B1B000ADB1D02D5002070BC7047DB05BA
:10045000181880180029F8DA401C4900F5D170BC42
:1004600040084000704710B5002B08DA0024401CFB
:10047000614192185B411A4301D14008400010BD10
:10048000F0B51FB482B005460C0003D0084603F057
:100490000FF802E003F00CF82030024600902146ED
:1004A000284600F0D4F9049B059A04460F461843E9
:1004B0001143084314D0184610431BD00098402124
:1004C0000A1A1846059900F0D2F905460E46009A18
:1004D0000599049800F0BBF9084305D0012004E019
:1004E0002046394607B0F0BD0020C11705430E4332
:1004F0002C43374300990E986305401A7905E40AA6
:1005000000220C43FD0A0A3002D500200146E9E72B
:100510000105101969410C9C0D9D00196941FFF7F7
:10052000A2FFDFE7F0B507460846584087B0C00F86
:10053000049048000E46590040084908BC1A8841FA
:1005400005D2384631461E4617460B46024658002D
:10055000400810434CD0300D039040055900400D29
:10056000490D0590401A0290402872DA18030121C3
:10057000000B09050843019004980092002805D05B
:100580000199524200208841009201900298402136
:100590000A1A0199009800F05AF905460C466B4674
:1005A00007CB00F075F9C0197141039A0E0D0023B5
:1005B000D71756401A467A40164344D0049A002A68
:1005C0002DD0029A012A039A15DC1205C01A914116
:1005D00001263605001C7141D20F059ED2070093FB
:1005E000019202962A462346FFF74AFF07B0F0BD64
:1005F00038463146FAE71605224A0F46B218C01AA5
:10060000B74101210905001C4F4100187F411146E7
:1006100018187941E20F10436D19644113E0E207A5
:100620006D0815436408C2071443039A0126120596
:10063000C01A91413605001C7141CE074008304375
:100640004908C01851412A462346FFF70CFFCDE761
:10065000FFE7049801224000C117121A00238B41C2
:1006600004983146C417381AA141EEE730B401248A
:10067000E407634030BC55E730B40124E40761402F
:1006800030BC4FE70000E0FFF0B50C465C4085B0A1
:10069000E40FE40703944C000026640859009446D4
:1006A000490802460296224321D062460A431ED0E0
:1006B0006200570D4A000E032303550D0124024624
:1006C0002C492405781B1B0B360B4018234326436B
:1006D000614600901C46501AB44103D30098401C58
:1006E000009002E0921800985B41002803DA002095
:1006F000014605B0F0BD00200121090507468646E8
:1007000011E064461D46141BB54106D36546521BD5
:10071000B341744607430C43A646CD074008490839
:10072000284392185B4105460D43EAD11046184311
:1007300013D06046194650407140084306D06046C9
:10074000101AB34106D20122002306E00022012341
:10075000DB0702E00122D2435310009874460105E2
:10076000381C6141029C039D00196941FFF77BFE23
:10077000BFE70000FD0300004A0009030123090B45
:100780001B0519430A4B10B5520D9A4202DA00209C
:10079000014610BD064B34339A4203DC9A1A00F02E
:1007A00066F810BD034BD21800F051F810BD0000E0
:1007B000FF030000CDFBFFFF10B5002904DB01247F
:1007C000E40740428C412146002B04DB1C460123F8
:1007D000DB075242A341994200D1904210BD000074
:1007E0001CB5094800900948019005460126009C67
:1007F00005E0E36807CC33430C3C98471034AC4227
:10080000F7D3FFF767FC0000FC3D00081C3E000822
:1008100070B50446002903D000202022012310E0F7
:10082000002801D00020C043C046C0460DE0254648
:10083000D5408D4205D30D469540641B1D4695401D
:1008400040191546521E002DF1DC214670BD10B531
:10085000202A04DB0146203A9140002010BD91403F
:1008600020239C1A0346E3401943904010BD10B565
:10087000202A04DB0846203AD040002110BD0B4658
:10088000D340D0402024A21A91400843194610BDFD
:1008900010B5202A06DBCB170846203A1041C117B5
:1008A0000B4306E00B461341D0402024A21A91408E
:1008B0000843194610BD80B500F004FC80BD80B52A
:1008C00084B003AA108002A801700020009001A942
:1008D0000870FFE701A8007802A90978884218DAB1
:1008E000FFE7009800020090039802A909784118D8
:1008F00001A80078C043401880B200F00DF801460E
:10090000009840180090FFE70198401C01A908706A
:10091000E0E7009804B080BD80B586B005A90191DC
:10092000088004A9039100200290087000F09CFC4C
:100930000598C009FE210840A030C0B200F04FFC6D
:1009400000F0D2FC0198007800F049FC00F0CCFCEB
:1009500000F08AFCA12000F042FC00F0C5FC0298E7
:1009600000F0F9FB0399087000F09EFC03980078F2
:1009700006B080BD80B584B003AB1880029101A899
:100980000270694600200870FFE76846007801A9F8
:100990000978884211DAFFE7039869460A788018D7
:1009A0000299D200D140C9B280B200F008F8FFE746
:1009B0000098401C69460870E7E704B080BD80B528
:1009C00084B003AA0092108002A80190017000F088
:1009D0004BFC0398C009FE210840A030C0B200F0D3
:1009E000FEFB00F081FC0098007800F0F8FB00F0BE
:1009F0007BFC0198007800F0F2FB00F075FC00F041
:100A000053FC0A2001F080F904B080BD80B58CB0A1
:100A10000AA90020079008700920C006069001224C
:100A2000089208230993114601F005FC0698079ADD
:100A3000099901F08BFB3B4801F09EF90698089A52
:100A4000099901F083FB0F2001F096F906980799A8
:100A5000089A099B01F0EFFBFFE70920C006082177
:100A600001F0D4FB01460020059069B1FFE70AA818
:100A70000178012000220392C829049001DB039829
:100A8000049004980590FFE70598C00740B1FFE780
:100A90000A98401C0AA90870012001F06DF9DCE7F2
:100AA0000AA80078C82804DBFFE70BA9012008701A
:100AB00034E00AA900200870FFE7FFE70920C0061C
:100AC000082101F0A3FB01460020029069B9FFE76D
:100AD0000AA80178012000220092F029019001DB90
:100AE0000098019001980290FFE70298C00740B17A
:100AF000FFE70A98401C0AA90870012001F03CF9A0
:100B0000DCE70AA80078F02804DBFFE70BA9012046
:100B1000087003E00BA900200870FFE70BA800781D
:100B20000CB080BDEE02000080B584B003A9029134
:100B3000FF2008700920C0060090012208230193BD
:100B4000114601F078FB0098019B0021032201F07F
:100B5000B9FBFFF75BFF014602980170007804B013
:100B600080BD000080B586B004A900910020087007
:100B700003A90191087000F091F8FFF747FFCC201E
:100B800000F096F8BE2000F093F800F035F80099D8
:100B9000087000F031F8009A01460198017003993D
:100BA00009021278891805AA118000780006002829
:100BB0000FD5FFE70598414205A801800088FFF79F
:100BC00089FB00220B4BFFF715FBFFF7BFFB0290E1
:100BD0000BE005A80088FFF77DFB0022044BFFF720
:100BE00009FBFFF7B3FB0290FFE7029806B080BD58
:100BF0000000B03F0000B0BF80B586B005A900205E
:100C0000087004AA10700870FFE705A8007807288C
:100C100040DCFFE70920C006029001220192082370
:100C20000393114601F007FB0298039900220092FA
:100C300001F08CFA022001F09FF8019A02980399C2
:100C400001F084FA0099019A0298039B01F0F3FAEB
:100C5000062001F091F80298039904AB1A78520823
:100C60001A7001F0D3FA30B1FFE7049880210843ED
:100C700004A90870FFE73C2001F07EF80920C006B7
:100C80000821012201F062FAFFE70598401C05A93E
:100C90000870BAE704A8007806B080BD80B5FFF7F9
:100CA000B5FECC2000F004F8442000F001F880BD2F
:100CB00080B588B007A908700920C0060122082362
:100CC000114601F0B8FA06A900200870FFE706A84F
:100CD0000078072837DCFFE707A80078C007A0B135
:100CE000FFE70920C006039008210491002201F0CB
:100CF0002DFA022001F040F803980499012201F036
:100D000025FA3C2001F038F813E00920C0060190D4
:100D100008210291002201F019FA3C2001F02CF880
:100D200001980299012201F011FA022001F024F841
:100D3000FFE707A9087840080870FFE70698401CFD
:100D400006A90870C3E708B080BD80B582B00190E5
:100D5000019801F011F802B080BDFFE7FEE7000046
:100D600080B586B004A8002103910170C448012217
:100D7000022301F060FA039805A90870FFE705A8AF
:100D8000007807282CDCFFE7BD4802900121009184
:100D9000002201F0DBF90520019001F05FF8009AD4
:100DA0000298114601F0D2F9019801F057F8029823
:100DB0000499490004AA1170022101F027FA30B108
:100DC000FFE704980121084304A90870FFE7052004
:100DD00001F044F8FFE70598401C05A90870CEE72C
:100DE000A7480121002201F0B1F904A8007806B05B
:100DF00080BDC04680B588B007A906910870A0489C
:100E000003900122029202230493114601F013FA87
:100E1000029903980022059201F098F90398049929
:100E2000059A01F093F9052001F018F8069800786A
:100E300030B9FFE792480221002201F087F905E06E
:100E40008F480221012201F081F9FFE78C480090D0
:100E500001220192114601F079F9052000F0FEFF10
:100E600000980199002201F071F90098019A02217D
:100E700001F06CF908B080BD80B58AB009A908708E
:100E80000020079008907E480590012206920223D8
:100E9000114601F0D0F905980699079A01F056F924
:100EA00007980890FFE70898072827DCFFE709A8BC
:100EB00004900078C20972480190022101F046F9BD
:100EC0000120029000F0CAFF0198029A114601F039
:100ED0003DF90520039000F0C1FF0198029900221E
:100EE00001F034F9039800F0B9FF04990998400023
:100EF0000870FFE70898401C0890D4E70AB080BD4E
:100F000080B586B05E4802900122039202230193CD
:100F1000114601F090F901990298039A01F016F92F
:100F20000520059000F09AFF0298039A114601F0FF
:100F30000DF9059800F092FF0199029800220492A1
:100F400001F004F9059800F089FF02980399049ACA
:100F500001F0FCF8059800F081FF06B080BDC046A6
:100F600080B586B046480290012204920223039382
:100F7000114601F060F9029804990022019201F0F3
:100F8000E5F8019A0298039901F0E0F80298049AB2
:100F9000114601F0DBF80520059000F05FFF029894
:100FA0000399049A01F0D2F8059800F057FF06B0B3
:100FB00080BDC04680B58CB00AA8002204920270A1
:100FC00009A90A2008702E4806900121079101F016
:100FD000BDF80698079A0221059101F0B7F8049927
:100FE000059B0698079A01F026F90520089000F065
:100FF00035FF0698079A114601F0A8F8089800F006
:101000002DFFFFE7F348022101F000F9014600201F
:101010000129039006D1FFE709A80078411E884105
:101020000390FFE70398C00740B1FFE70998401E0F
:1010300009A90870052000F011FFE3E709A800786E
:10104000002806DCFFE7FFF78BFF0BA901200870E3
:1010500011E0F248019001210291002201F076F89E
:101060000198029A0223114601F0E5F8FFE70A9879
:101070000BA90870FFE70BA800780CB080BDC04634
:101080000004004880B584B00020039001F093F97B
:101090000920C0060122019202230293114601F0A9
:1010A000CAF8039801F09DF90298FFF74EFE0198E7
:1010B00001F081F90298FFF748FE039801F07BF9EF
:1010C00004B080BD80B584B00920C0060290012123
:1010D0000191002200920223039301F0ACF80099E1
:1010E0000298039B032201F0EDF8009A019B0298FD
:1010F000194601F0A0F8009A019B0298194601F0E8
:10110000E1F80199029801F019F80298039901F0A9
:1011100015F804B080BD80B584B00020039001F0C4
:101120004AF90920C00601220192022302931146C6
:1011300001F081F8019801F054F90298FFF705FEDB
:10114000019801F038F90298FFF7FFFD039801F0CC
:1011500032F904B080BD80B584B003A9087001A83D
:101160000022009202700920C0060223114601F0FD
:1011700062F8009802A90870FFE702A80078072823
:101180001FDCFFE7002001F016F90220FFF7DDFD6C
:10119000012001F010F90198400001A9087001F048
:1011A000F5F828B1FFE70198401C01A90870FFE796
:1011B0000120FFF7CAFDFFE70298401C02A9087052
:1011C000DBE703A8007818B9FFE7FFF7A4FF02E008
:1011D000FFF758FFFFE701A8007804B080BD80B595
:1011E00086B005A9087004A9029100200390087038
:1011F0000920C00601220223114601F01CF80398C1
:1012000001F0D9F8029903980870FFE704A8007864
:10121000072827DCFFE705A80078C00920B1FFE711
:10122000012001F0DEF803E0002001F0DAF8FFE72A
:101230000598400005A9087002200190FFF785FD80
:10124000012001F0B8F80198FFF77FFD002001F0C0
:10125000B2F80198FFF779FDFFE70498401C04A954
:101260000870D3E706B080BD80B584B00920C00601
:10127000012201920223114600F0DDFF019801F0E6
:10128000B0F8019801F097F804200290FFF75DFD97
:101290000020039001F0A5F80298FFF756FD03988F
:1012A00001F089F804B080BD80B584B00920C00683
:1012B000012202920223114600F0BDFF002001909E
:1012C00001F079F8019801F08CF8029801F073F8B8
:1012D00004200390FFF739FD029801F082F803988B
:1012E000FFF733FD04B080BD80B584B002A80022B2
:1012F00002700920C0060223114600F09CFF012065
:10130000019001F06EF80198FFF71FFD019801F0C0
:1013100052F80198FFF719FDFFE701F037F878B1AF
:10132000FFE70298411C02A801700078FB2806DB49
:10133000FFE7FFF7B9FF03A90120087008E0ECE719
:101340000020009001F037F8009803A90870FFE72B
:1013500003A8007804B080BD7047704780B582B0A4
:1013600001A9002008700870FFE701A80078112883
:101370000BDCFFE701A80278174900208854FFE73B
:101380000198401C01A90870EFE70D490091087809
:10139000FD22104008700B49002008700A490870AF
:1013A0000A4908700A4908701C48102100F0BEFE66
:1013B00000990878FE221040087002B080BDC04637
:1013C00076000020E300002089000020E2000020D9
:1013D000F7000020000400487700002080B584B0AA
:1013E0000E4800900123019319461A4600F023FF8E
:1013F0000098019B03220292194600F063FF0098B7
:10140000019A02230393114600F015FF00980199F9
:10141000029A039B00F056FF04B080BD0004004810
:1014200080B582B02020082100F057F800F014F8B1
:10143000019001A8428803490A600088486002B010
:1014400080BDC046F800002080B5FFF7C7FF202010
:10145000032100F042F880BD80B584B0FFF750FD55
:10146000B120FFF709FDFFF7A5FDFFF779FC039019
:1014700000200190FFF7BEFC039800020390FFF7E5
:101480006FFC02460198039989180391FFF7B2FC9B
:10149000FFF766FC0146019802AA1170FFF7AAFC4B
:1014A000039800020390FFF75BFC02460198039942
:1014B00089180391FFF79EFC039800020390FFF741
:1014C0004FFC01460398401803900120FFF792FC5F
:1014D000FFF746FD039804B080BD80B584B003AA31
:1014E0000092107002A801900170FFF709FDB02072
:1014F000FFF7C2FCFFF75EFD00980078FFF7BCFC29
:10150000FFF758FD01980078FFF7B6FCFFF752FD92
:10151000FFF726FD642000F0F7FB04B080BD7047A4
:101520007047000080B582B020490868012210434E
:101530000860FFE71D4800688007002801D4FFE726
:10154000F8E71B4908681B4A1040086008681A4AF7
:101550001040086015490868184A1040086018498A
:1015600008680F22904308601649086840F2031289
:1015700090430860086801220092130498430860B1
:101580000868D307984308600F49086890430860CB
:101590000E4900200190086001F08CFC0098019930
:1015A000C00601F0B7F902B080BDC046001002408D
:1015B000041002400C00FF08FFFFC277FFFFF2FE9D
:1015C0002C1002403010024034100240081002403B
:1015D00080B582B02748012101F0D4FD002846D013
:1015E000FFE725480188491C0180008840F2E83166
:1015F000884210DBFFE72049002008800920C00650
:10160000019040F2001100F099FD019848F20001AC
:1016100000F08CFD26E018480088192804D1FFE767
:10162000164901200870FFE713480088322804D1CA
:10163000FFE7134901200870FFE70F48008840F2D8
:10164000F41188420DD1FFE70920C006009040F256
:10165000001100F06BFD009848F2000100F06EFDF3
:10166000FFE7FFE70348012101F082FDFFE702B039
:1016700080BDC04600040040E00000208A00002039
:101680008B00002080B50748074901F099FE38B16A
:10169000FFE70448044901F073FE00F0B9FEFFE7DC
:1016A00080BDC046003801400500050781B00146F5
:1016B000684601700021405600280DD4FFE7002144
:1016C000684641561F200A460240012090404909C1
:1016D0008900024A8850FFE701B0704700E100E04E
:1016E00070B582B0024601A80270009100214056F8
:1016F000002816D4FFE7002401A908570322D3438A
:101700001840174A805809578C07E50EFF24AC4053
:10171000A043009CA401E4B2AC402043194088508F
:101720001AE001A908780F24204008380322D34387
:1017300018400A4A8058002549578D07EE0EFF25AC
:10174000B540A843009DAD01EDB2B540284321400E
:10175000083919408850FFE702B070BD1CED00E069
:1017600000E400E07F490868082210430860FFE7B2
:10177000F64800680007002801D5FFE7F8E7F349BD
:101780000868042210430860FFE7F048006840073B
:10179000002801D5FFE7F8E77047C04683B002464E
:1017A00002A80270019100780090012804D0FFE7A0
:1017B000009802280FD01DE0CD490A680F200005CF
:1017C00082430A60019A12050D4BD2180240086844
:1017D000104308600FE009490A68032000058243AE
:1017E0000A60019A1205064BD2180240086810439D
:1017F000086000E0FFE703B07047C04638240140AE
:101800000000F0FF80B582B00920C006032100224D
:101810000092702300F00FFD012101910846FFF7AF
:10182000BDFF0199084600F037F8019807214904E7
:1018300000F070F8009800F00DF800F021F8019821
:1018400000F062FAFFF78EFF019800F061F902B034
:1018500080BD000081B00090009838B1FFE7BB491F
:10186000086840F600021043086006E0B7490868BF
:1018700040F6000290430860FFE701B07047C046A1
:10188000B2480068C00730B9FFE7B04908680122D4
:1018900010430860FFE7704782B001AA10706846E5
:1018A00001700078D0B1FFE701A80078C00738B117
:1018B000FFE7A64908680122120510430860FFE708
:1018C00001A800788007002807D5FFE79F4908682E
:1018D00048F2000210430860FFE719E001A8007811
:1018E000C00738B1FFE79949086801221205904303
:1018F0000860FFE701A800788007002807D5FFE708
:101900009249086848F2000290430860FFE7FFE749
:1019100002B0704783B0024602A8027001910078BD
:101920000090012804D0FFE7009802280BD015E0B2
:10193000864908680722520490430860019A0868A3
:10194000104308600BE08149086847F200029043A9
:101950000860019A08681043086000E0FFE703B0E0
:101960007047C0460824014081B00090009A0D499C
:1019700008689043086001B07047C04682B001908B
:10198000694600200870074800680199084204D0A1
:10199000FFE7694601200870FFE76846007802B05B
:1019A0007047C0460024014010B585B0034604A826
:1019B000037003AB197002920078052818D8FFE76E
:1019C0004D490868019004AB1C780520024662432B
:1019D0001F249440019AA243019203AA12781B7813
:1019E000584382400198104301900198086040E0FC
:1019F00004A800780B281AD8FFE73E490868019030
:101A000004AB1C780520024662431E3A1F24944012
:101A1000019AA243019203AA12781B7858431E38F8
:101A200082400198104301900198086020E004A8CA
:101A300000780F281AD8FFE72D490868019004ABF9
:101A40001C780520024662433C3A1F249440019AC8
:101A5000A243019203AA12781B7858433C38824073
:101A60000198104301900198086000E0FFE7FFE74C
:101A7000FFE703A80078092817D8FFE7204908687E
:101A8000009003AB1C780320024662430724944075
:101A9000009AA2430092029A1B7858438240009811
:101AA00010430090009808601FE003A800781228F7
:101AB00019D8FFE711490868009003AB1C78032090
:101AC000024662431E3A07249440009AA2430092C1
:101AD000029A1B7858431E388240009810430090A9
:101AE0000098086000E0FFE7FFE705B010BDC046C2
:101AF0002C24014030240140342401400C240140B6
:101B0000102401400148006880B270474C24014015
:101B100081B00146684601700078C00738B1FFE720
:101B20000A4908680122920510430860FFE76846E9
:101B300000788007002807D5FFE7044908680122DC
:101B4000520510430860FFE701B0704708240140C8
:101B500080B586B0FF20FEF7DFFE01465E480170CB
:101B60000078552855D1FFE7092002210591FEF79D
:101B7000A6FE05995D4A10800B20FEF7A0FE5D4988
:101B800008800D20FEF7C8FE014657480170007816
:101B9000C00720B1FFE751490120087003E04F4919
:101BA00000200870FFE7504800788007002804D51F
:101BB000FFE74B490120087003E049490020087005
:101BC000FFE7494800784007002804D5FFE745496A
:101BD0000120087003E0434900200870FFE701205E
:101BE00002210491FEF76BFE0499434A1080032002
:101BF000FEF765FE0499414A10800520FEF75FFE5E
:101C000004993F4A10800720FEF759FE3D4908809D
:101C100060E0FF2003905521FEF7D1FE0398FEF708
:101C20007BFE01462C4801700078552805D0FFE75F
:101C3000FF205521FEF7C3FEFFE72849002008706A
:101C400027490870274908702749029108700D201C
:101C5000FEF762FE029902461F480270007809787A
:101C6000884206D0FFE7204801780D20FEF7A7FE46
:101C7000FFE71E4901910020088009200221FEF79C
:101C80001EFE019902461A4802800088098888428F
:101C900007D0FFE71548018809200222FEF76AFEF7
:101CA000FFE714490091002008800B200221FEF775
:101CB00006FE009902460E48028000880988884284
:101CC00007D0FFE70B4801880B200222FEF752FEE7
:101CD000FFE7FFE706B080BD0601002018000020E6
:101CE00019000020220000201E00002024000020F7
:101CF000040100201C000020DE0000202000002045
:101D0000DC0000201A00002080B584B00390039806
:101D1000FEF7D8FA50490968FEF7F0F9FEF7EEFA37
:101D20006B4908606B49002008606B49012008601E
:101D3000FFE7694800680290FFE7002002A90978E0
:101D4000C907019041B1FFE702A88078012108404E
:101D5000414248410190FFE70198C0070028E8D1BF
:101D6000FFE75D4908680122904308605949002057
:101D7000086004B080BDC04680B584B0039003986D
:101D8000FEF7A0FA51490968FEF7B8F9FEF7B6FA6E
:101D90004F4908604F49002008604F490120086002
:101DA000FFE74D4800680290FFE7002002A909788C
:101DB000C907019041B1FFE702A8807801210840DE
:101DC000414248410190FFE70198C0070028E8D14F
:101DD000FFE7414908680122904308603D4900201F
:101DE000086004B080BDC04680B584B003900398FD
:101DF000FEF768FA18490968FEF780F9FEF77EFADF
:101E000033490860334900200860334901200860E5
:101E1000FFE7314800680290FFE7002002A9097837
:101E2000C907019041B1FFE702A88078012108406D
:101E3000414248410190FFE70198C0070028E8D1DE
:101E4000FFE72549086801229043086021490020E6
:101E5000086004B080BDC046EC00002080B584B0AE
:101E600003900398FEF72EFA18490968FEF746F921
:101E7000FEF744FA16490860164900200860164922
:101E800001200860FFE7144800680290FFE7002087
:101E900002A90978C907019041B1FFE702A880783B
:101EA00001210840414248410190FFE70198C007E5
:101EB0000028E8D1FFE7084908680122904308603C
:101EC00004490020086004B080BDC046F000002036
:101ED00014E000E018E000E010E000E080B582B01F
:101EE0000190009101A8007801F0AAFA019802B0CF
:101EF00080BD000010B588B00790002006900798BC
:101F00003049884203D1FFE70020069000E0FFE758
:101F10002D4800F029FF069841002C48405A00F057
:101F200023FF069881002A48009042580920C006E5
:101F300003900121059100F099F803980599069AFC
:101F40009300244A0292D25800F090F80099039826
:101F5000059A069B9B00CB580221019100F06BF97A
:101F600000990398059A069B9B00CB580021049189
:101F700000F0A8F90199029B0398059A069CA40019
:101F80001B5900F058F9029B03980499059A069C86
:101F9000A4001B5900F096F9079801F091F90798F1
:101FA00044F6003101F020F90798042101F039FAD4
:101FB0000798082101F05CFA079801F0A9F908B028
:101FC00010BDC0460038014011050000040000208B
:101FD0000C0000200800002080B582B0014601A856
:101FE0000170017800200522FFF7DEFC0120FFF7D9
:101FF0008FFDFFE70220FFF7C1FC08B9FFE7F9E713
:102000000220FFF7B1FCFFF77DFD0249084002B056
:1020100080BDC046FF0F000080B584B003A90870E2
:102020000020029001906A46042111700290FFE79F
:10203000029869460A780121914088420DDAFFE74B
:1020400003A80078FFF7C8FF0146019840180190E7
:10205000FFE70298401C0290EAE701986946097878
:10206000C840019001A8008804B080BD86B00590EA
:10207000049103920598006A01900598406A0090C7
:1020800002A900200880FFE702A8008807281DD8C1
:10209000FFE702A801880398C840C00780B1FFE7A6
:1020A00002A8018889000F228A4001999143019179
:1020B0000499008880008140019808430190FFE75F
:1020C000FFE70298401C02A90880DDE702A908206A
:1020D0000880FFE702A800880F281FD8FFE702A8A2
:1020E00001880398C840C00790B1FFE702A80188A3
:1020F000890020390F228A40009991430091049968
:102100000088800020388140009808430090FFE755
:10211000FFE70298401C02A90880DBE701980599B7
:10212000086200980599486206B0704782B0019035
:10213000009100980199886202B0704782B00190C6
:10214000009100980199886102B0704783B00290B5
:10215000019168460270007820B1FFE7019802996A
:10216000886103E0019802998862FFE703B0704735
:1021700080B58AB024480290012105910022069280
:102180008023019300F057F8019B029806990322DF
:10219000079200F097F801990298FFF7CFFF029895
:1021A0000599069A1023039300F045F80298039BC3
:1021B0000699079A00F086F80599069A0920C00644
:1021C000089040F20013049300F035F8049B069940
:1021D000079A089800F076F804990898FFF7AEFF80
:1021E0000599069A089848F20003099300F023F82D
:1021F0000699079A0898099B00F064F808980999CD
:10220000FFF794FF0AB080BD0004004883B001903E
:102210000091019800690099084204D0FFE702A9E3
:102220000120087003E002A900200870FFE702A85F
:10223000007803B0704787B006900591049203932D
:102240000698006801900698C068009002A90020D6
:102250000880FFE702A800880F282BD8FFE702A814
:1022600001880398C840C007F0B1FFE702A80188C1
:102270004900032213468B40019999430191059B24
:10228000018849008B400199194301910188490057
:102290008A40009991430091049900884000814050
:1022A000009808430090FFE7FFE70298401C02A94E
:1022B0000880CFE701980699086000980699C860E1
:1022C00007B0704710B586B0059004A8017003925E
:1022D00002930078012806D1FFE7029A0599486821
:1022E0001043486005E0029A0599486890434860A9
:1022F000FFE705988068009001A900200880FFE7AB
:1023000001A800880F281DD8FFE701A801880298BE
:10231000C840C00780B1FFE701A801884900032237
:102320008A400099914300910399008840008140C0
:10233000009808430090FFE7FFE70198401C01A9BF
:102340000880DDE700980599886006B010BD83B06D
:10235000029001A80170694601200870FFE76846F5
:10236000007801A9097888420EDAFFE702986946E9
:1023700009784A008118805A891E0880FFE7009872
:10238000401C69460870EAE703B0704780B582B028
:102390000920C0060221FFF739FF20B9FFE701A994
:1023A0000020087003E001A901200870FFE701A8E0
:1023B000007802B080BD80B582B0014601A80170EE
:1023C000007830B9FFE70920C0060121FFF7AEFE13
:1023D00005E00920C0060121FFF7B0FEFFE702B0CB
:1023E00080BD80B582B0014601A80170007830B987
:1023F000FFE70920C0060221FFF798FE05E009204B
:10240000C0060221FFF79AFEFFE702B080BD000080
:1024100080B582B045480078002867D1FFE744487E
:1024200000F03AFF4349087045480078097888422F
:1024300056D1FFE74249002008703E49087800095C
:10244000404A10700A780F2002403F480270097815
:102450003E4A11700078401E019003283ED8019931
:102460008A0001A08018874600F006B800F005B881
:1024700000F013B800F022B831E0324800780C28A0
:102480000AD1FFE72D490878022210430870294835
:1024900000782E490870FFE721E02A4800780C28D0
:1024A0000BD1FFE72149012008702349072008705C
:1024B0002048007825490870FFE710E0214800789F
:1024C0000C280AD1FFE71D49087802221043087042
:1024D000184800781D490870FFE700E0FFE704E0B6
:1024E0001448007816490870FFE716E0E54800F048
:1024F000D3FE01460D4803785A1C02700D4AD15490
:1025000000780D490978884206D1FFE70B49087821
:10251000022210430870FFE7FFE7084800788007B1
:10252000C00F08B1FFE7FFE702B080BDE200002066
:10253000003801407700002089000020760000204C
:10254000F6000020F4000020F5000020F700002035
:1025500087B0069005A8017003A9002008700598AF
:10256000401E04A90870FFE703A8007804A90978B1
:10257000884276DAFFE70498401E02A9087004A991
:1025800000200870039801A90870FFE701A80078EF
:1025900002A90978884227DCFFE7069801A9097893
:1025A0004A008118805A4988884217DDFFE706985B
:1025B00001AA11784900405A6946088006991078A6
:1025C0004300C8184088C8520098069912785200F3
:1025D00089184880019804A90870FFE7FFE701986F
:1025E000401C01A90870D1E70398401C02A908709B
:1025F00003A900200870049801A90870FFE701A84A
:10260000007802A9097888422ADBFFE7069901A829
:10261000007842008818801E0088895A884219DD97
:10262000FFE7069801AA11784900405A69460880D8
:10263000069910784300C818801E0088C852009878
:102640000699127852008918891E0880019803A9FA
:102650000870FFE7FFE70198401E01A90870CEE768
:1026600082E707B07047000080B586B00020059073
:102670000490039002A90420087000F035FC00F0DB
:1026800059FBFFF775FD00F025F9FFF7BBF800F0E7
:102690004BFCFEF710F97B48FFF72CFCFEF744FAE1
:1026A000FEF7D2FEFEF75AFEFFE77648764900F0C5
:1026B00038FE08B9FFE7F8E77248052100F04FFE41
:1026C000FFF746FAFFE7FEF74DFAFDF72BFE02464D
:1026D0000B466E4800F0DCFEFEF7A2FE6C48016877
:1026E00042686C4800F0D4FE40F2F410FFF77CFB27
:1026F0006948007840B3FFE76749002008700390FD
:102700000490FFE7049802A90A78012191408842C9
:102710000DDAFFE70120FFF77FFC05214143039815
:1027200040180390FFE70498401C0490EAE70398E0
:1027300002A90978C840039003995848418041880C
:10274000574800F0A5FEFFE75648007800B997E02B
:102750005449002008700220FFF75EFC01465248F1
:102760000180018851480278531C03705300504A7D
:10277000D1520078282800DA81E0694600200870EC
:10278000FFE76846007827280DDCFFE768460078F9
:1027900042004748805A47498852FFE70098401C4A
:1027A00069460870EDE743482821FFF7D1FE42490A
:1027B00000200860694604200870FFE7684600783A
:1027C00023280CDCFFE76A461078411C1170410099
:1027D0003848425A3849086880180860EEE734489B
:1027E0002821FFF7B4FD3448006841092B48818057
:1027F0008188324800F04CFE31480078B8B3FFE7DA
:10280000304800880004002813D5FFE72D480288CF
:102810002D4802402148818889188180808841F2B2
:102820000001884204DBFFE71C4928488880FFE755
:1028300012E01A48808823490988884207DDFFE7AB
:102840002048028815498888801A888003E0134947
:1028500000208880FFE7FFE7104988880001019089
:1028600001981B4A1288B0FBF2F0088003E00B4984
:1028700000200880FFE70D4927200870FFE7FFE7E9
:1028800021E7C0460038014006070000E63D000889
:10289000F8000020C83D00088A000020E400002065
:1028A000B83D00088B00002008010020EA0000204D
:1028B0008C0000202600002000010020A83D000818
:1028C000220000201C000020FF7F0000FF0F0000FE
:1028D0002400002080B51B20012100F005F8102005
:1028E000002100F001F880BD80B584B00A460146A1
:1028F00003A80190017002A90A700022009280567C
:102900000978FEF7EDFE009901984056FEF7CEFEDD
:1029100004B080BD82B00190009101980099034AF3
:10292000114008430249086002B0704780FFFF1F52
:1029300008ED00E082B0014601A80170F64A116876
:102940004CF2000399431160F74A1168594B194042
:10295000116000780090092800D9A7E000998A004A
:1029600001A080188746C04600F012B800F01CB8DD
:1029700000F026B800F02EB800F03BB800F046B8E2
:1029800000F056B800F061B800F071B800F07CB803
:10299000E54908680122120490430860086840F283
:1029A00000129043086082E0DF49086801221204A7
:1029B00010430860086840F200129043086076E017
:1029C000D54908680860D849086840F200121043E9
:1029D00008606CE0D04908680860D34908680122A3
:1029E000D20710430860086840F2001210430860E4
:1029F0005DE0C949086844F2000210430860CA4912
:102A0000086840F200121043086050E0C2490868AC
:102A100044F2000210430860C34908680122D2074B
:102A200010430860086840F20012104308603EE05E
:102A3000B949086848F2000210430860BA490868BA
:102A400040F200121043086031E0B349086848F2D0
:102A5000000210430860B44908680122D2071043FD
:102A60000860086840F20012104308601FE0AA499D
:102A700008684CF2000210430860AB49086840F255
:102A800000121043086012E0A34908684CF20002EB
:102A900010430860A44908680122D2071043086067
:102AA000086840F200121043086000E0FFE702B03F
:102AB0007047C046FFFEFE7F9CB01BA90870002037
:102AC00001901A90199018901790169015901490E4
:102AD00013901290119010900F900E900D900C90FA
:102AE0000B908B490A918B490991089007900691A8
:102AF000059004910390ED4800680C21084080087F
:102B00001A901A98029040B1FFE70298012807D066
:102B1000FFE70298022806D044E08248169044E07D
:102B20008048169041E0E14801680F22920411406C
:102B3000890C109100680121C9060840C00E0F9051
:102B40000F98012804D1FFE71098113010900BE086
:102B500010980F2803D1FFE71020109003E0109881
:102B6000801C1090FFE7FFE7D048006801210904AE
:102B70000840000C0E900E9870B1FFE7684800689E
:102B80000F210840401C0D900D996648B0FBF1F1F3
:102B900010984843169004E01099604848431690F6
:102BA000FFE702E05F481690FFE7C0480168C9B23E
:102BB00009090C910C9A07A9895C0B9116990B9A3B
:102BC000D1401591016840F200721140090A0C9140
:102BD0000C9A05A9895C0B9115990B9AD140149117
:102BE000006843F600010840C00A0C900C9903A845
:102BF000405C0B9015980B99C84013901BA8007867
:102C00000090052800D97FE000998A0001A0801873
:102C10008746C04600F00AB800F00BB800F00CB8C8
:102C200000F00DB800F00EB800F040B816981790FC
:102C30006BE01598179068E01498179065E013986A
:102C4000179062E03848006840F20011084088425E
:102C50000FD0FFE73448006801210904084088428A
:102C600003D0FFE73248129002E030481290FFE7AD
:102C700019E08E48006880B2800B19902A480068DD
:102C8000C00F1890189838B1FFE715981999491C8A
:102C9000B0FBF1F0129005E013981999B0FBF1F038
:102CA0001290FFE7FFE7129817902EE01E48006889
:102CB000800718B9FFE71398119022E01A480068BE
:102CC00003210840012803D1FFE71698119017E06F
:102CD0001548006803210840022804D1FFE748F2A4
:102CE000000011900BE01048006803210840032801
:102CF00003D1FFE70B48119000E0FFE7FFE7FFE794
:102D0000FFE71198179000E0FFE717981CB0704795
:102D100006070809010203040410024000093D00EF
:102D20002C10024000127A0030100240003FAB012C
:102D3000809FD50080B5084800F016F8074800F0DD
:102D400013F80620FFF7F6FD054800F00DF80548DA
:102D500000F00AF880BDC046110500001205000011
:102D6000090600000107000081B0014668460180A5
:102D700000881F220146114001238B408109494AE6
:102D800088581843885001B07047C04681B001464A
:102D90006846018000881F220146114001238B40B4
:102DA0008109404A88589843885001B07047C0460E
:102DB00081B001466846018000881F22014611400B
:102DC00001238B408109374A88581843885001B045
:102DD0007047C04684B000200390029031490868D3
:102DE0000122120410430860FFE70398401C03907F
:102DF0002C4800680121490408400290FFE702992D
:102E00000020019041B9FFE7039840F60001401A05
:102E1000411E88410190FFE70198C0070028E4D1D6
:102E2000FFE7204800688003002802D4FFE7FFE79F
:102E3000FEE71D49086802221043052290430860FE
:102E40001A49009108680860086808600868086006
:102E50000868174A1040086008681D2212041043D1
:102E60000860104908680122120610430860FFE755
:102E70000C4800688001002801D4FFE7F8E70B49FF
:102E80000868032290430860086802221043086023
:102E9000FFE7064800680007002801D4FFE7F8E7CD
:102EA00004B07047001002400020024004100240AD
:102EB000FFFFC27780B5FFF78DFF80BD81B0009026
:102EC0000098042806D1FFE7064908680422104349
:102ED000086005E003490868042290430860FFE7A2
:102EE00001B0704710E000E080B50420C043FFF758
:102EF000E5FF08480068FDF7E5F90749FDF73BF9EC
:102F000001460648016000680549FDF7F7F80549E4
:102F1000086080BD100000200024F44AF00000206A
:102F200000007A44EC00002080B586B0864801900D
:102F300000F01CF802A8009000F042F900990198F6
:102F400047220A8000224A808A80074B0493CA8065
:102F50000A7300F085F80198012100F0FFF801984C
:102F600000F074F806B080BDE703000080B58AB0B9
:102F70000990099808907449884226D0FFE708987C
:102F80002C49884229D0FFE70898704988422CD004
:102F9000FFE708986B4988420FD0FFE708986C4913
:102FA00088422BD0FFE708986A4988422FD0FFE774
:102FB00008986949884232D039E023480790FFF7E2
:102FC000F7FE0798FFF7E2FE32E01E480690FFF793
:102FD000EFFE0698FFF7DAFE2AE019480590FFF7A2
:102FE000E7FE0598FFF7D2FE22E040F20840049089
:102FF000FFF7DEFE0498FFF7C9FE19E040F210303B
:103000000390FFF7D5FE0398FFF7C0FE10E00B48D2
:103010000290FFF7CDFE0298FFF7B8FE08E00648E1
:103020000190FFF7C5FE0198FFF7B0FE00E0FFE753
:103030000AB080BD00100040120300001103000020
:1030400004040000010400000B03000081B00090A4
:103050000099086801221043086001B07047000021
:1030600082B00190009100980088019988620198CF
:103070003449884205D0FFE701983349884212D18C
:10308000FFE7019908687022904308600098428821
:1030900001990868104308600098828801990868BF
:1030A00010430860FFE7009880680199C8620198A2
:1030B0002449884219D0FFE701982349884214D057
:1030C000FFE70198214988420FD0FFE70198204986
:1030D00088420AD0FFE701981E49884205D0FFE7E1
:1030E00001981D4988420DD1FFE70199086840F217
:1030F0000032904308600098C28801990868104324
:103100000860FFE701980F4988420FD0FFE7019858
:103110000F4988420AD0FFE701980E49884205D03E
:10312000FFE701980C49884205D1FFE70098007B32
:1031300001990863FFE7019948690122104348613A
:1031400002B07047002C0140000400400020004005
:1031500000400140004401400048014082B001901D
:103160000091009A0199C8681043C86002B0704786
:1031700082B001900091009A01990869904308611A
:1031800002B0704784B0029001910298C068019922
:1031900008400090029800690199084207D0FFE7B3
:1031A000009820B1FFE703A90120087003E003A9FC
:1031B00000200870FFE703A8007804B07047000003
:1031C00081B0009000990020088000994880009903
:1031D0008880009A034991600099C880009908731B
:1031E00001B07047FFFF000080B588B007900691DE
:1031F00000200590049003900290079801904149A7
:1032000088420AD0FFE70198974988420AD1FFE730
:103210000520FFF751FC059005E00220FFF74CFC6C
:10322000059000E0FFE7079800680004002818D523
:10323000FFE70598400006994A088018B0FBF1F0B6
:103240000290029813490840049002980007400F2A
:10325000039004A8008803A9098808430799C86057
:1032600016E0059806994A088018B0FBF1F0029024
:10327000029808490840049002980F2108400390E2
:1032800004A8008803A9098808430799C860FFE7D4
:1032900008B080BDF0FF000081B000900098406A47
:1032A0000649084001B0704782B001900091009833
:1032B000024908400199886202B07047FF0100008E
:1032C00080B584B00390039802900E4988420DD0D7
:1032D000FFE702986449884210D1FFE70B4801904C
:1032E000FFF766FD0198FFF751FD08E006480090E2
:1032F000FFF75EFD0098FFF749FD00E0FFE704B02F
:1033000080BDC04600440040110400000E030000D0
:1033100081B000900099086801221043086001B054
:10332000704784B0009101460098029101A908807D
:1033300002980A889209805809881F221140C840C3
:10334000C00720B1FFE703A90120087003E003A92B
:1033500000200870FFE703A8007804B0704782B02F
:1033600001906846018000881F2201461140012318
:103370008B400199820988581843885002B07047E1
:1033800082B00190009100980C49884208D1FFE773
:103390000199D022885848F20003984388500BE0E6
:1033A00000981F2109040840000C01228240019965
:1033B000086A10430862FFE702B0704709340F340F
:1033C00010B585B003900291002001900090039801
:1033D00002A9098889094058029C1F231C40012129
:1033E0000A46A240104001900398029A920D80581C
:1033F000029A1B041A40120C914008400090009859
:1034000038B1FFE7019820B1FFE704A90120087057
:1034100003E004A900200870FFE704A8007805B0C5
:1034200010BD82B001900091019908680422904378
:103430000860009A019908681043086002B070475C
:1034400080B582B0014601A8017001780648FFF7F7
:103450002BFFFFE704480549FFF763FF08B9FFE7C3
:10346000F8E702B080BDC046003801400707000001
:1034700082B0019000910199086808229043086089
:10348000009A019908681043086002B07047000074
:103490000FB410B503A9044B044A029800F0E8F8F1
:1034A00010BC08BC04B01847DD1E00080000002056
:1034B0002021020C01D010211046020A01D0104632
:1034C0000839020901D01046091F820801D01046B0
:1034D000891E420801D0881E7047081A704702E012
:1034E00008C8121F08C1002AFAD17047704700208F
:1034F00001E001C1121F002AFBD17047F0B51FB4D3
:1035000086B00998089A030D0021024314D051484F
:10351000514A1818504305141198012810981AD0D0
:10352000281A401C00264D4F4D49009601910490E9
:10353000002812DA444211E01198012449A301281D
:1035400001D11098C1430698119A84600360C2604B
:1035500041600BB0F0BD4042E4E704462105002085
:103560003F4A001C51410391029012E0E00707D04E
:1035700032463B4601990098FCF73CFE01910090D1
:1035800032463B4610461946FCF734FE06460F46C7
:103590006410002CEAD10498039B0028029A099930
:1035A000089806DAFCF726FE019B009AFCF722FE3B
:1035B00005E0FDF769F8019B009AFDF765F8044600
:1035C0000E460022284BFDF7F7F803D80020C04331
:1035D000014607E00022254B20463146FCF7A2FFBA
:1035E000FDF7CAF8102409E0002C0ADB0A220023A8
:1035F000FCF7C8FE079B30321A55641E02460A4388
:10360000F2D11122641C079B121B1C19119B012B68
:1036100003D0012308430ED10AE0084304D011204F
:1036200010900020119077E71098151A6D1E0BE08E
:103630001098824202DD00236D1C03E0824201DA11
:1036400000236D1E002BEED0069811998260C16098
:1036500030C07EE701FCFFFF104D00000000144069
:103660000000F03F300000000000F0430000E03FA9
:10367000FFB597B00646002518E2252877D100242B
:103680002746FD49049400E00443761C327801206B
:10369000203A90400842F7D130782A280ED00222F2
:1036A000307801463039092916D804990A2359433C
:1036B000303940181443761C0490F1E7189802C87A
:1036C00004911890002904DA012040030443484281
:1036D000049002200443761C30782E2814D1042054
:1036E00004437078761C2A2809D11898761C80C863
:1036F000189009E00A214F43303FC719761C3078F3
:10370000014630390929F5D930786C2810D006DC0B
:103710004C281AD068280ED06A2817D104E07428E3
:1037200013D07A2812D110E00120400504430CE0A8
:103730000121090501E0032109050C43717881424B
:1037400003D1012000052418761C761C30781190D6
:1037500066280BD013DC58287DD009DC00287BD0EC
:103760004528F6D04628F4D047281AD1A5E118E01C
:10377000632835D0642870D0652812D19DE1702867
:103780006CD008DC6728F1D069287BD06E280DD07A
:103790006F2806D1BAE073282ED0752871D078280A
:1037A00059D01A9A199990476D1C7EE16002400F1A
:1037B000022809D003280DD00428189801680DD0DC
:1037C0000D60001D189070E11898EA1701680D60EF
:1037D0004A60F6E7189801680D80F2E70D70F0E78F
:1037E00018986A4601781172001D189000205072D6
:1037F00002A80090012005E0189802C81890002047
:103800000091C04361070DD5002101E00199491CD9
:103810000191B94212DA8142F8DB009A515C002929
:10382000F4D10BE0002101E00199491C0191814292
:10383000FADB019A0099895C0029F5D10199049875
:103840001A9B471A21463846199A00F097FA0199AF
:10385000401945180BE04FE02CE113E04EE00098D2
:1038600000990078491C00911A9A1999904701987B
:10387000401E0190401CF2D1214638461A9B199AED
:1038800010E137E00A200021009001916002410F11
:10389000022907D0189A01CA1892C2179446032920
:1038A00008D00AE01898C01DC108C90005C91891C0
:1038B000944607E000B2C2179446042902D140B2F0
:1038C000C1178C4600226146944506DA0A4600215B
:1038D000404291418C462D2102E0210504D52B2147
:1038E0006A461173012103E0E10701D02021F7E7C7
:1038F000029155E00A200AE0102008E01020009014
:103900000021042004430191082703E0082000213E
:10391000019100906002410F022907D0189A01CA54
:10392000189200229446032908D008E01898C01D78
:10393000C108C90005C91891944603E080B2042962
:1039400000D1C0B200210291210729D51199702917
:1039500006D0009A1021019B4A401A4305D00EE080
:1039600040216A461173012108E06146014306D0F7
:1039700030216A4611731199517302210291009A04
:103980000821019B4A401A430AD16146014301D1F3
:10399000610705D530216A46117301217F1E02910E
:1039A0001199582904D035A10E910DA90D910DE062
:1039B00037A1F9E76146019B009AFCF7E3FC0E9BF7
:1039C0008C469B5C0D9A521E0D921370614601430A
:1039D000F0D10D9805A9081A20300190600703D591
:1039E00001200004844300E001270198874201DDA3
:1039F000381A00E000200199009041180298091837
:103A00000498401A0490E00306D421461A9B199AA0
:103A1000049800F0B3F94519002706E003A81A9AA4
:103A2000C05D199990476D1C7F1C02988742F5DB99
:103A3000E0030CD521461A9B199A049800F09EF9D0
:103A4000451904E01A9A3020199990476D1C009985
:103A5000481E00900029F5DC08E00D980D990078CB
:103A6000491C0D911A9A199990476D1C0199481E8D
:103A700001900029F1DC63E1092801003031323383
:103A8000343536373839616263646566000000009A
:103A90003031323334353637383941424344454684
:103AA0000000000000F05AF94519761C3078002813
:103AB00000D0E2E528461BB0F0BD600700D4062721
:103AC0001898C01DC108C90048680A680831C30FAA
:103AD000DB071891190001D09CA108E0210501D550
:103AE0009BA104E0E10701D09AA100E09AA1430064
:103AF00011985B08109165280CD006DC452809D088
:103B000046281DD0472841D141E0662818D06728B3
:103B10003CD13CE00021112F01DB112000E0781C9A
:103B20000191009008A911A8FFF7E8FC13990591ED
:103B30000021119A15927F1C12980197009150E074
:103B40000120C00703900120019008A9009711A847
:103B5000FFF7D4FC139A149905920022119B00924E
:103B600012981593059A0192002901D0104602E09F
:103B7000791C40180190381A01D5019804E04042A0
:103B8000401E0090781C0190C01B029043E0012F62
:103B900000DA01270021112F01DD112000E0384655
:103BA0000191009008A911A8FFF7A8FC13990591AD
:103BB000119A0021129815920091019721070CD4B7
:103BC0000599B94201DB019900E00191012904DD69
:103BD000159A491E515C302906D0B84201DA011D00
:103BE00005DA0121029115E00199491EEDE700284F
:103BF00005DC0099411800910199091A03E0019A26
:103C0000411C914200DD01910099401A401C029034
:103C10000120C0070390200706D402990198814231
:103C200002DB0020C043029000206946C87707AF3E
:103C3000012103980337C907884224D0022011903C
:103C40002B201290039800280CDA404203902D207C
:103C5000129007E00A210398FCF7DAFD30317F1E4D
:103C6000039039701199481E11900029F2DC0398D5
:103C70000028EFD1791E1298087030782021084072
:103C80004530BF1E387006A8C01BC01D0390109899
:103C90000078002800D00120019941180298C0172F
:103CA0000918039809180498401A401E0490E0036C
:103CB00006D421461A9B199A049800F05FF845191A
:103CC00010980078002803D01A9A199990476D1C13
:103CD000E00324D521461A9B199A049800F04EF867
:103CE00045191CE00098002807DB009905988842D8
:103CF00003DD1598405C199901E0199930201A9A52
:103D0000904700986D1C401C00900298401E029045
:103D1000002804D11A9A2E20199990476D1C0199F8
:103D2000481E01900029DDDC05E038781A9A7F1CD6
:103D3000199990476D1C0399481E03900029F4DCE3
:103D400021461A9B199A0498ACE600002D00000049
:103D50002B0000002000000000000000F8B5044621
:103D600000251E461746880404D405E03946202065
:103D7000B0476D1C641EF9D52846F8BDFFB5044652
:103D8000002581B01E46C80301D5302700E020275A
:103D9000880404D505E038460399B0476D1C641EBD
:103DA000F9D5284605B0F0BD736D6F6B655F766120
:103DB0006C3A2025640D0A006C617365725F766150
:103DC0006C3A2025640D0A00434F325F76616C2007
:103DD0003D2025642C2054564F435F76616C203D76
:103DE0002025640D0A0074656D70657261747572CA
:103DF00065203D20252E32660D0A0000203E000879
:103E00000000002018000000DE340008383E0008E2
:103E100018000020F8040000EE3400080000000044
:103E2000000000000E060000000400000002000078
:083E300000A24A04000000009A
:04000005080000CD22
:00000001FF
